:020000040800F2
:1000000040070020010100082B2500083B240008C0
:1000100029250008C913000829280008000000004D
:100020000000000000000000000000002F25000874
:10003000CB130008000000002D2500083125000822
:100040001B0100081B0100081B0100081B01000820
:100050001B0100081B0100081B0100081B01000810
:100060001B0100081B0100081B0100081B01000800
:100070001B0100081B0100081B0100081B010008F0
:100080001B0100081B0100081B0100081B010008E0
:100090001B0100081B0100081B0100081B010008D0
:1000A0001B0100081B0100081B0100081B010008C0
:1000B0001B0100081B0100081B0100081B010008B0
:1000C0001B0100081B0100081B0100081B010008A0
:1000D0001B010008112800081D2800081B0100084A
:1000E0001B0100081B0100081B010008DFF80CD0F1
:1000F00000F09AFF00480047053E00084007002036
:100100000648804706480047FEE7FEE7FEE7FEE7B1
:10011000FEE7FEE7FEE7FEE7FEE7FEE785250008CF
:10012000ED000008202A04DB203A21FA02F0002129
:10013000704721FA02F3D040C2F1200291400843F7
:1001400019467047D2B201E000F8012B491EFBD2DC
:1001500070470022F6E710B513460A4604461946D2
:10016000FFF7F0FF204610BD30B505462A460B4686
:1001700012F8010B13F8014B08B1A042F8D01CB1E2
:10018000002802D06D1CF1E7284630BD0FB400B541
:100190008DB010A909900B9000914FF0FF300A909C
:1001A00000200C9005480690054807906A4609A86B
:1001B0000F9900F08BFD0DB05DF814FBE90C000801
:1001C000070D00082DE9FF5F1D464FF0FF3BD5E905
:1001D000014691465F464FF00008A9697F1C0198CF
:1001E0008847296A824688470028F6D1BAF1FF3F3E
:1001F0000CD024F4C064002E19DD600614D5BAF1C9
:100200002B0F09D0BAF12D0F0ED103E0584604B0E0
:10021000BDE8F09F44F48064A9697F1C0198884779
:10022000761E8246002E02DDBAF1300F03D0B9F1FE
:10023000000F26D032E0A969761E44F400747F1CBA
:10024000019888478246002E05DDBAF1780F06D066
:10025000BAF1580F03D0B9F1000F10D01EE0B9F178
:10026000000F02D0B9F1100F18D1A969761E24F43D
:1002700000747F1C019888478246102002E0082005
:1002800000E00A20814609E008FB0908A969761EFA
:1002900044F400747F1C019888478246002E05DDD7
:1002A0004946504600F0FEFC0028EDDAE969019865
:1002B0008847A00502D46FF00100A8E7E00725D128
:1002C000600613D5600502D5C8F1000000E0404685
:1002D00029680A1D2A600968220501D5087015E001
:1002E000220701D5088011E008600FE02868011D91
:1002F00029600068210502D580F8008006E021070A
:1003000002D5A0F8008001E0C0F8008038467EE702
:100310002DE9FF5FD2E901A74FF0000891699946E6
:100320001446DDF838B0464601988847054659EA34
:100330000B0005D009E0A169761C019888470546A5
:10034000216A284688470028F5D1681C03D05FEA57
:10035000CA7005D015E04FF0FF3004B0BDE8F09F43
:100360002068011D2160D0F800800AE05FEACA70B1
:1003700001D108F8015BA169761C7F1E01988847AE
:100380000546002F1ADD681C18D0B9F1000F0DD0FA
:10039000E81705EBD060421120F01F0059F8221039
:1003A0002A1A012090400142E0D107E0BBF1000F82
:1003B000DCD1216A284688470028D7D0E169019816
:1003C0008847BBF1000F07D1002E05DD5FEACA7038
:1003D00002D1002188F80010A068B84203DDBBF10B
:1003E000000F03D017B16FF00100B6E73046B4E755
:1003F0002DE9FF4F087883B09946FF2805D0491CA6
:100400002D2804D00024002008E000200BE0012467
:10041000F9E700EB800003EB4000491C0B78FF2B51
:10042000F7D104B1404200230293147819461D46C7
:100430002D2C01D02B2C04D1521C2D2C13D0002498
:100440000294AA461478FF2C0FD00A25A3FB057846
:1004500001FB05814FF0000C03FB0C11521CE3194A
:100460004AEB0101EEE70124EAE7814453EA010087
:1004700002D019F5C87F06DA03980021C0E90011FF
:1004800007B0BDE8F08F0025AE4E2F46DFF8B882EA
:10049000184600F071FDCDE90001B9F1000002DA63
:1004A000C9F1000400E004460023A74A1AEB030B3D
:1004B00042EB045A12E0E00707D02A46334638469A
:1004C000414600F02AFA074688462A463346104637
:1004D000194600F022FA05460E466410002CEAD1B7
:1004E000DDE90001B9F1000F5A46534606DA00F083
:1004F00086FA3A46434600F082FA05E000F00DFA2B
:100500003A46434600F009FA029A0AB181F00041E6
:10051000039AC2E90001B3E72DE9FF4F1F468DB0F2
:10052000D7E901464FF0FF382E2045464FF000092D
:100530000B90B9696D1C0E988847396A82468847C6
:100540000028F6D1BAF1FF3F0AD024F4D064002E7F
:1005500011DDBAF12B0F08D0BAF12D0F0BD102E04B
:10056000404611B08DE744F48064B9696D1C0E9863
:1005700088478246761E6946600501D52D2000E039
:100580002B208DF8000001F1010B0DF1200809E08E
:10059000B9696D1C0E98884782460F9844F4007420
:1005A000761E0560002E02DDBAF1300FF0D00B99F7
:1005B0008A453ED144F0800406E00F99681CA9F1F9
:1005C000010944F400740860B9696D1C761E0E9828
:1005D000884782463028F0D02BE00B998A4505D118
:1005E000200603D444F08004761E18E0504602F042
:1005F0004BFD08B30DF11301761E44F400748B45D6
:1006000008D2AAF130000BF8010B200607D5A9F19A
:10061000010003E0200602D409F101008146A00593
:1006200002D50F99681C0860B9696D1C0E9888473F
:100630008246002ED1DC53E0002E51DDBAF1650F69
:1006400002D0BAF1450F4BD1A00549D5B9696D1C4F
:1006500024F44074761E0E9888478246002E0CDDE6
:100660002B2804D0BAF12D0F07D144F48074B96956
:100670006D1C0E9888478246761EE00501D52D2117
:1006800000E02B2108F8011BCDF82C8021E00DF1B2
:100690002901761E44F4007488450CD2AAF130007A
:1006A00010F0FF0088F8000002D10B99884509D9A5
:1006B00008F1010806E0E00501D5244801E042F216
:1006C0000F708146B9696D1C0E98884782460F9855
:1006D0000560002E04DD504602F0D6FC0028D6D17D
:1006E000F9690E988847FF208BF8000088F8000011
:1006F0000020069007904B466A4608A906A8FFF717
:1007000077FEA00502D46FF001002AE714F0240F51
:100710000AD0E00714D1DDE906123868031D3B60FA
:100720000068C0E900120BE0DDE9060100F060FCA2
:100730000146E00704D13868021D3A600068016094
:1007400028460EE7000014400000F03FF1D8FFFFFC
:1007500030B480EA010202F0004530F0004221F09E
:10076000004013D090B1C30DD40DC2F31601C0F3F5
:100770001600E41A41F4000140F400027D34914275
:1007800001D3641C00E04900002C02DA30BC0020D8
:1007900070474FF400000023914201D3891A0343AC
:1007A00040084FEA4101F7D151B1914202D14FF0D7
:1007B000004105E002D24FF0010101E06FF00101BC
:1007C00003EBC450284430BC00F0AEBA2DE9FE4F14
:1007D000804681EA0300C00F0C46009021F00041E2
:1007E00023F00045B8EB0200A94105D2404621465E
:1007F00090461C460B46024623F00040104347D06B
:10080000270DC7F30A00C3F30A510290401A019062
:1008100040286BDAC3F3130040F4801B0098924623
:1008200020B10023D2EB030A63EB0B0B019859466E
:10083000C0F14002504600F014FA06460D465046FC
:100840005946019A00F01CFA10EB0800614100249F
:1008500087EA115284EAE7731A4340D0009A62B3E0
:10086000019A012A4FEA075215DC001B61EB0201D5
:100870004FF0004202EA0752CDE90042001C41F568
:10088000801132462B4600F095FA03B0BDE8F08F98
:1008900040462146F9E7001B61EB0201001C41F5CF
:1008A000801300185B412018A2F5001747EB0301E5
:1008B00040EAD570B6196D4111E06D084FEA360671
:1008C00045EAC0754FEA0752001B61EB0201001CAC
:1008D00041F5801149084FEA300000195141324674
:1008E0002B4603B0BDE8F04F00F055BA0098012246
:1008F00040000023D0EB020263EBE0730098214636
:100900004FEAE074B8EB000061EB0401E9E783F023
:1009100000435BE781F0004158E72DE9FE4F81EA93
:10092000030404F0004421F0004100944FF0000B58
:1009300023F0004350EA01045ED052EA03045BD086
:10094000C3F30A54C1F30A552C44A4F2F3340194BE
:10095000A0FB0254C1F3130141F48011C3F313034C
:1009600043F4801301FB024400FB034E840A970A00
:1009700044EA815447EA8357A4FB076802958D0A2D
:1009800005FB07854FEA932C04FB0C542705029DB9
:100990004FEA065847EA1637B5EB08056EEB070C29
:1009A000870E920E47EA811742EA8312A7FB0201E3
:1009B000B6EB0B0164EB00042B0D43EA0C335E181D
:1009C00044EB1C50DA465146E7FB0201C5F3130421
:1009D0004FEA0B3343EA14534FEA0432019C43EAD3
:1009E0000603A4F10C040294009CCDE900B400F0CD
:1009F000E1F903B0BDE8F08F00200146F9E72DE9E9
:100A0000F04D81EA030404F0004B21F00045144648
:100A10004FF0000A23F0004150EA050220D054EACA
:100A200001021DD0C5F30A570246C5F31303C1F3F3
:100A30001300C1F30A5640F4801543F48013A7EB6A
:100A40000608101BD64608F2FD3873EB050002D3EA
:100A500008F1010801E092185B41B8F1000F03DAD8
:100A600000200146BDE8F08D00204FF480110646BD
:100A700084460EE0171B73EB050705D3121B63EBCF
:100A8000050306434CEA010C49084FEA300092186E
:100A90005B4150EA0107EDD152EA030012D082EA2D
:100AA000040083EA0501084305D0101BAB4106D2C0
:100AB0000122002306E000224FF0004302E06FF025
:100AC000010253101AEB06004CEB085110EB0A0020
:100AD00041EB0B01BDE8F04D00F05DB970B521F0C0
:100AE000004303430CD0C1F30A550024D5EB0405A1
:100AF00064EB0403D617AD1AB34102DB00200146B4
:100B000070BD201841EB025170BDC10F80EAE0704A
:100B10000844CA079623002100F00FB90EB5C10F93
:100B200080EAE0700844CA07002140F233438DE8B0
:100B30000E000A460B4600F03DF903B000BD00F080
:100B4000004220F00040C10DC0F3160040F4000048
:100B50007F2901DA00207047962903DCC1F1960154
:100B6000C84001E096398840002AF4D040427047DE
:100B700070B5C1F30A5201F000450024C1F313011E
:100B800040F2FF3341F480119A4201DA002070BD37
:100B900040F233439A42A2F2334203DC5242FFF75F
:100BA000C1FA00E090402C43F1D0404270BD00F00B
:100BB000004230F000400AD0C10D01F56071C0F371
:100BC000160042EA0151C208400711437047002055
:100BD0000146704730B50B46014600202022012413
:100BE00009E021FA02F59D4205D303FA02F5491BFB
:100BF00004FA02F52844151EA2F10102F1DC30BD11
:100C00002DE9F05F0546002092469B468846064641
:100C1000814640241BE02846414647462246FFF7CE
:100C200081FA53465A46C01A914110D311461846CC
:100C3000224600F016F82D1A67EB01084F462246AF
:100C40000120002100F00DF817EB00094E41201E95
:100C5000A4F10104DFDC484631462A464346BDE89C
:100C6000F09F202A04DB203A00FA02F100207047AE
:100C70009140C2F1200320FA03F3194390407047DA
:100C8000202A06DBCB17203A41FA02F043EAE07350
:100C900006E041FA02F3D040C2F12002914008433D
:100CA000194670473A2800D2303820F02002412AF5
:100CB00001D3A2F13700884201D34FF0FF307047D3
:100CC000026811441378016018467047D1600449E6
:100CD00051610449116200211161114600F0BCB953
:100CE000C10C00084D100008426842B1016811F8BB
:100CF000013B23B1521EC0E9001218467047012182
:100D0000C160881E704742685AB1C368016843B920
:100D100083688B4205D0491E521CC0E90012002096
:100D200070474FF0FF3070470029A8BF7047401C44
:100D3000490008BF20F00100704710B4B0FA80FCF1
:100D400000FA0CF050EA010404BF10BC704749B12E
:100D5000CCF1200421FA04F411FA0CF118BF01219E
:100D600021430843A3EB0C01CB1D4FEA00614FEA7E
:100D7000102042BF002010BC704700EBC35010444D
:100D80000029A4BF10BC7047401C490008BF20F0D8
:100D9000010010BC704710B5141E73F1000408DA8E
:100DA000401C41F1000192185B411A4301D120F02F
:100DB000010010BD2DE9F04D92469B4611B1B1FAEC
:100DC00081F202E0B0FA80F220329046FFF749FF4C
:100DD00004460F4640EA0A0041EA0B0153465A46D0
:100DE000084313D0114653EA010019D0C8F140025C
:100DF0005046FFF797F905460E465046594642467B
:100E0000FFF72FFF084305D0012004E020463946B4
:100E1000BDE8F08D0020054346EAE0762C433743D9
:100E20000A986305E40AA0EB08000022FD0A44EAE0
:100E300047540A3002D500200146E9E701051019A0
:100E40006941DDE9084500196941BDE8F04DA2E7B7
:100E50002DE9F04D00231A461B1A8A4103DB0020BE
:100E60000146BDE8F08DC1F30A52C1F3130141F40C
:100E700080154FF0000BD10702D100186D41521EB2
:100E80000027044640F2FF11384601EB620A3E4655
:100E90008046024600204FF48011FFF743F9C21943
:100EA0007141BB1846EB0100B4EB030C75EB000C71
:100EB00004D3E41A65EB000517460E46241908F121
:100EC00001006D4180463428E3DDF91946EB060048
:100ED000091BA84103D24FF0FF32134601E0002264
:100EE00013461BEB070046EB0A51BDE8F04DFFF738
:100EF00052BF2DE9FE4FC3F30A5701F0004500240D
:100F0000C1F30A56C3F31303C1F3130143F480136F
:100F100012EB020AA64641F48011009543EB030C44
:100F2000A7F1010B16E0B0EB0A0061EB0C01071E04
:100F300071F1000707DA4FF00008D0EB080085F0E8
:100F4000004568EB0101171A73EB0107EBD3761E1E
:100F5000001849415E45F6DA50EA010209D0CDE9B0
:100F600000E5002213460296FFF724FF03B0BDE818
:100F7000F08F20460099F9E70EB540F23342029215
:100F80000022CDE900221346FFF714FF03B000BD95
:100F9000C1F30A52C1F3130140F2FF3341F480114F
:100FA0009A4202DA00200146704740F233439A42E7
:100FB000A2F2334202DC5242FFF7B4B8FFF751BE4F
:100FC00030B5041E71F1000404DB4FF000444042D0
:100FD00064EB0101141E73F1000405DB1C464FF0A5
:100FE0000043524263EB0403994208BF904230BD74
:100FF00001F0004330B421F0004150EA010206D074
:101000000A0DA2F56072C1F31301002A02DC30BCA4
:1010100000207047440F44EAC104C100E01830BC0E
:1010200000EBC250FFF780BE064C074D06E0E068BB
:1010300040F0010394E8070098471034AC42F6D31F
:10104000FFF758F85847000878470008C0B24FF437
:10105000F05100F0A5B900002DE9F34F8BB04FF02F
:10106000000801F10C000C464FF0010B46460DF153
:10107000080A01906269012101989047051E2DD050
:10108000252D2CD0216A8847C0B1626901210198C1
:101090009047216A88470028F7D1411E626901986C
:1010A000904700E0761CA1690B988847216A884721
:1010B0000028F7D1E1690B988847DBE7A1690B9815
:1010C00088470746A84201D1761CD3E7E1690B980F
:1010D00088477F1C02D1B8F1000F6FD046E100278E
:1010E00062693D463946019890472A2804D16269D1
:1010F0000121019890470125DFF88492626901215E
:1011000001989047A0F130010A290AD24F45E5DC49
:1011100007EB870100EB4107303FDFD445F01005B6
:10112000ECE7E90601D46FF000476C280AD04C28A0
:1011300014D0682815D06A280DD074281CD07A28BD
:101140001AD01DE062690121019890476C2802D0F5
:1011500045F0040514E045F002050DE045F02005DA
:101160000AE06269012101989047682802D045F0A1
:10117000080505E045F40065626901210198904782
:10118000C4E9015765283DD019DC58287AD00CDC19
:10119000452837D004DC252826D0412831D131E03C
:1011A00046282FD047282CD12CE05B2877D0612807
:1011B00028D063287CD0642823D15AE0D0E06F285F
:1011C00048D008DC66281DD067281BD0692821D0AC
:1011D0006E2816D127E0702845D0732868D075286E
:1011E00047D078280DD14DE0A1690B988847054676
:1011F00025283FF469AFE1690B9888476D1C3FF4DF
:101200006AAFB3E023466A466FF001000B99FFF71F
:1012100083F99EE045F040006060A80723464FF048
:10122000000236D43EE0E8077FF447AF2068011D96
:1012300021600068290501D506701BE7290701D543
:10124000068017E7A90703D5F117C0E9006111E788
:1012500006600FE745F040006060A80723464FF0A6
:10126000080216D41EE040F60E0125EA0100606077
:1012700016E045F040006060A80723464FF00A02E0
:1012800007D40FE045F040006060A80708D523466A
:1012900010226FF001000B99AFF3008059E007E0D6
:1012A000234610226FF001000B99FEF78BFF50E0F0
:1012B0004FF000094F464B46632802D05B2806D00A
:1012C00040E0E80601D40120A06001273AE062690D
:1012D0000121019890475E2805D14FF0010962690C
:1012E000494601989047216939B900210A46534679
:1012F00043F82120491C0829FADBB0B3216969B9F8
:10130000C11700EBD16253110AEB830122F01F02D7
:10131000821A01200B68904003430B60626901212F
:10132000019890475D28E8D1B9F1000F09D000205D
:10133000514651F82020D24341F82020401C082873
:10134000F7DB02AB224600976FF001000B99FEF726
:10135000DFFF00280CDA401C08D1BBF1000F05D0DC
:101360004FF0FF300DB0BDE8F08FFFE74046F9E7E2
:10137000E90701D108F1010806444FF0000B79E6B6
:10138000CCCCCC0C0EB540F2334102910021CDE91A
:1013900000110A460B46FFF70DFD03B000BD00002B
:1013A0007F2801D9002208E0064A02EB5002C0075C
:1013B000127800D1120902F00F020120904008407B
:1013C0007047000058460008FEE77047704700006D
:1013D00010B500F061FA0B49C1F80402B1F800023F
:1013E000B0F5FF7F07D291F802220A54B1F800024B
:1013F000401CA1F80002BDE8104001220249034848
:1014000000F092BF180000201A020020BC02002049
:10141000044900200122A1F8000201F20221024841
:1014200000F082BF18000020BC0200202DE9F04F20
:101430008FB000F031FA574CD4F80412401A322819
:101440007BD9B4F80002002877D053A12046FEF7DC
:101450008BFE050072D004F5027048210646FEF7A7
:1014600078FE04F51370011F821FA0F11003CDE96F
:101470000C101438CDE90A32C31F011F821F0693D6
:101480000990CDE907210A1F14380592011FCDE903
:1014900003101838811E0091213BCDE90103C31EC2
:1014A00032463F492846FEF771FE94F820122D205F
:1014B00009B984F8200294F8301209B984F830028E
:1014C00094F8441209B984F8440294F83C1209B91A
:1014D00084F83C02D4F8100204F5047402F044FBD2
:1014E000C4E90201606902F03FFBC4E9060102465B
:1014F0000B46D4E90201CDE9000102A802F00AFF7F
:1015000003A8029F90E868009846CDE900563A4645
:1015100004A802F0F7FB0DF1100999E80F008146CD
:101520008A4693461F48029301F080F9D4E90201EC
:10153000CDE90001D4E9062301E023E01AE01AA076
:10154000A4F5047401F072F9CDE900782A46334617
:101550001CA001F06BF9CDE9005643463A4620A0A5
:1015600001F064F902994A46CDE900B1534623A03F
:1015700001F05CF94FF400710648FEF7EAFD002027
:10158000A4F800020FB00122BDE8F04F2249234821
:1015900000F0CABE180000202447504747412C00E5
:1015A0000C470008984600087767733834206C6F42
:1015B0006E2C6C617420203D2025662C25660D0A5A
:1015C00000000000676F6F676C65206C61742C6CA5
:1015D0006F6E203D2025662C25660D0A0000000058
:1015E000616D61702020206C6F6E2C6C6174203DE9
:1015F0002025662C25660D0A000000006264303943
:10160000206C6F6E2C6C61742020203D2025662C90
:1016100025660D0A0D0A00001A020020BC020020F7
:1016200010B590F821100024022903D00421816311
:1016300001243DE001680A6822F00E020A60016898
:101640000A6822F001020A601A4A0168914201D137
:10165000012121E0174A1432914201D110211BE0EF
:10166000144A2832914201D1891515E0114A3C32C1
:10167000914201D189140FE00E4A5032914202D1B9
:101680004FF4803108E00B4A6432914202D14FF4AA
:10169000801101E04FF08071064A083A5160012143
:1016A00080F82110002180F82010416B01B188479B
:1016B000204610BD080002402DE9F84FDFF8B89130
:1016C000002409F1040A0AF1040B23460F270BF149
:1016D000040EC9E00125A5402A40AA427DD1674EEB
:1016E000D1F804C0ACEB0608B44532D014DCBCF130
:1016F000030F3AD009DCBCF1000F2AD0BCF1010F76
:101700001CD0BCF1020F31D11DE0BCF1110F17D07C
:10171000BCF1120F2AD119E0B8F5881F19D006DCE8
:10172000B8F5803F15D0B8F5801F1FD111E0B8F58E
:10173000001F0ED0B8F5041F18D10AE0CB6815E0E1
:10174000CB681B1D12E0CB6808330FE0CB680C336D
:101750000CE08B682BB1012B4FF0080303D04561DF
:1017600004E0042302E0056100E00023FF2A01D821
:10177000064601E000F104064FEA840501D9A5F10F
:101780002005D6F8008007FA05FC28EA0C0803FAC1
:1017900005F548EA0508C6F800804D68ED0062D5F9
:1017A000374DAE6946F00106AE61AD6924F003061F
:1017B00005F001050095334D06EB050CDCF80850EB
:1017C000A607360F07FA06F825EA0805DFF8B880FD
:1017D000404503D14FF0000817E044E0DFF8AC804B
:1017E000404502D14FF001080FE0DFF8A4804045EA
:1017F00002D14FF0020808E0DFF89880404502D19E
:101800004FF0030801E04FF0040808FA06F848EA30
:101810000508CCF808804D68D9F80060ED034D4606
:1018200001D5164300E096432E604D68DAF800605B
:10183000AD03554601D5164300E096432E604D6832
:10184000DBF80060ED025D4601D5164300E09643EB
:101850002E604D68DEF80060AD02754601D5164376
:1018600000E096432E60641C0D682A46E5407FF434
:1018700031AFBDE8F88F00000004014000001110F6
:10188000001002400000014000080140000C01402F
:1018900000100140001401400148806870470000BA
:1018A0000000002070B504001BD094F83D00002516
:1018B00020B984F83C50204600F0AEF8242084F88B
:1018C0003D002068016821F00101016000F00AFA82
:1018D0004D4A6168914201D84C4900E04C49884228
:1018E00001D2012070BD4B492368B0FBF1F15E6865
:1018F00026F03F060E435E606368934206D94FF4BC
:10190000967359434FF47A73B1FBF3F12368491C82
:101910001E6A26F03F06314319626168914210D871
:101920004900401EB0FBF1F2521CC2F30B02042A24
:1019300001D2042022E0B0FBF1F0401CC0F30B0008
:101940001CE0A368F3B301EBC10202EB0116421ED7
:10195000B2FBF6F2521C42F48042120549D093B316
:1019600001EBC10202EB0111401EB0FBF1F0401C83
:10197000C0F30B0040F4804040F400402168CA6985
:101980004CF6FF739A431043C861D4E9070108433A
:1019900021680A6822F0C00210430860D4E90301FC
:1019A00001432068826848F2FF339A431143816003
:1019B000D4E9050108432168CA6822F0FF021043F8
:1019C000C86001E00EE016E02068016841F0010106
:1019D00001602564202084F83D00256384F83E5092
:1019E000002070BD01EB4106421EB2FBF6F2521C14
:1019F000B3E70120C2E701EB4101401EB0FBF1F06B
:101A0000401CC0F30B00B7E7A086010080841E00D5
:101A100000093D0040420F0010B586B00021009142
:101A200001910291039100681349884222D1134C1D
:101A3000A06940F00800A061A069694600F00800B4
:101A400004904FF440700090122001900320039006
:101A50000B48FFF731FE0B48416841F0E06141F06F
:101A600002014160E06940F40010E061E06900F4C7
:101A70000010049006B010BD005400400010024059
:101A8000000C0140000001400248816802781144C6
:101A90008160704700000020074810B5016841F0E0
:101AA00010010160032000F075F8002000F006F836
:101AB00000F024F8002010BD0020024070B50D4D4C
:101AC00004464FF47A712878B1FBF0F00A490968AE
:101AD000B1FBF0F000F0ECFA48B9102C07D200226C
:101AE0002146501E00F036F800206C6070BD0120C9
:101AF00070BD0000000000200C0000200C4808B55C
:101B0000816941F001018161816901F00101009168
:101B1000C16941F08051C161C06900F080500090FE
:101B20000448416821F0E06141F00071416008BD66
:101B30000010024000000140002809DB00F01F02F5
:101B4000012191404009800000F1E020C0F800111F
:101B500070470000F0B40E4B1B680C46C3F3022321
:101B6000C3F10705042D00D90425191D072901D249
:101B7000002300E0DB1E012606FA05F1491E214084
:101B800099409E40761E16403143F0BC00F072BE74
:101B90000CED00E0064900F0070208684FF6FF036D
:101BA000184040EA0220034A1043086070470000D2
:101BB0000CED00E00000FA052DE9F0470F460500A6
:101BC00061D0434E306800F00700B84209D2306857
:101BD00020F0070038433060306800F00700B8425A
:101BE00051D128683B4C810712D5400703D5606866
:101BF00040F4E06060602878000703D5606840F436
:101C0000605060606068A96820F0F0000843606080
:101C10002878C00728D06868012810D021680228D9
:101C200010D0890700292EDA616821F003010143F1
:101C30006160FFF731FE804641F288390DE021688E
:101C40008903EFE78901EDE7FFF726FEA0EB080126
:101C5000494502D90320BDE8F0876068696800F053
:101C60000C00B0EB810FEFD1306800F00700B842F4
:101C70000BD9306820F0070038433060306800F03E
:101C80000700B84201D00120E5E72878400705D5D4
:101C90006068E96820F4E060084360602878000725
:101CA00006D56068296920F4605040EAC100606090
:101CB00000F038F86168084AC1F30311515CC8406C
:101CC0000649086006480068FFF7F8FE0020C2E7F2
:101CD00000200240001002407C4400080C0000205C
:101CE000040000200448054900684968044AC1F31B
:101CF0000221515CC84070470C00002000100240D7
:101D00008C4400080448054900684968044AC1F346
:101D1000C221515CC84070470C00002000100240F6
:101D20008C44000812A185B00FC98DE80F0014A0E3
:101D3000144A006804905168134801F00C03042B06
:101D400010D0082B0ED1C1F38343C9031DF8030043
:101D50000AD5516804AAC1F34041515C0A4A504374
:101D6000B0FBF1F005B0704708494843FAE70000BE
:101D700002030405060708090A0B0C0D0E0F1010CC
:101D8000010200000010024000127A0000093D002C
:101D90002DE9F84F040070D02078C04DC00749D01D
:101DA0006868C0F38100012807D06868C0F381002B
:101DB000022809D16868C00306D52868800339D590
:101DC00060680028E7D035E06068B0F5803F0BD050
:101DD00010B1B0F5A02F11D0286820F48030286011
:101DE000286820F4802002E0286840F480302860D1
:101DF000606890B1FFF750FD06460AE0286840F49D
:101E000080202860F0E700BFFFF746FD801B6428B4
:101E100073D828688003F7D50CE0FFF73DFD064630
:101E200005E000BFFFF738FD801B6428F0D8286864
:101E30008003F7D420789A4E80074FF001094FF0C5
:101E4000000839D5686810F00C0F07D06868C0F337
:101E50008100022809D16868C00306D42868800779
:101E600014D52069012808D110E02069B0B1C6F866
:101E70000090FFF711FD074605E00AE1FFF70CFDB2
:101E8000C01B0228C4D828688007F7D52868616974
:101E900020F0F80040EAC10028600DE0C6F800809C
:101EA000FFF7FAFC074604E0FFF7F6FCC01B022828
:101EB00023D828688007F7D4207800072CD57948E4
:101EC000A169D9B1C0F80090FFF7E6FC074604E02D
:101ED000FFF7E2FCC01B02280FD8686A8007F7D51D
:101EE00071484FF4FA510068B0FBF1F0009000BF68
:101EF0000098411E0091FAD20EE080E0C0F8008008
:101F0000FFF7CAFC074604E0FFF7C6FCC01B022827
:101F100075D8686A8007F7D42078400760D5E869EB
:101F20000027C00008D4E86940F08050E861E86903
:101F3000012700F0805000905C480168C90513D467
:101F40000168834641F480710160FFF7A5FC824679
:101F500006E000BFFFF7A0FCA0EB0A0064284ED803
:101F6000DBF80000C005F5D5E06801280AD008B10B
:101F7000052813D0286A20F001002862286A20F082
:101F8000040002E0286A40F001002862E06841F2A3
:101F9000883B98B1FFF780FC82460BE0286A40F04E
:101FA00004002862EEE700BFFFF776FCA0EB0A0111
:101FB00059455AD8286A8007F6D50CE0FFF76CFC23
:101FC000824605E0FFF768FCA0EB0A0159454CD8B2
:101FD000286A8007F6D41FB1E86920F08050E861D4
:101FE000E06988B36968C1F38101022944D00228FD
:101FF000C6F8608004D0FFF74FFC044638E034E0B8
:10200000FFF74AFC074604E0FFF746FCC01B022826
:102010002BD828688001F7D4206AB0F5803F05D11D
:102020006868A16820F4003008436860D4E90801BA
:102030000843696821F4741108436860C6F8609029
:10204000FFF72AFC044606E025E000BFFFF724FC6A
:10205000001B022809D828688001F7D51BE000BFC3
:10206000FFF71AFC001B022802D90320BDE8F88FF5
:1020700028688001F4D40EE00128F7D06868226A4D
:1020800000F48031914204D1616A00F470108842FA
:1020900001D00120EAE70020E8E70000001002403C
:1020A00000004242800442420C00002000700040C8
:1020B00010B5401EB0F1807F01D3012010BD4FF05C
:1020C000E02460610F21601700F0D4FB0020A061C4
:1020D00007202061002010BD7047000070B5026825
:1020E00004461068D168536910F00F0F50D003F008
:1020F000010501F4907635435DD0C20705D0CA05CD
:1021000003D5E26B42F00102E263420705D5DA072C
:1021100003D0E26B42F00202E263820705D5DA07E0
:1021200003D0E26B42F00402E263020705D5DA074E
:1021300003D0E26B42F00802E263E26B002A33D084
:10214000800604D5880602D5204600F055FA20689E
:102150004069E16BC0F38010090700D428B3204622
:1021600000F03CFA2068416949061AD5416921F01E
:1021700040014161606BA0B11B494163606BFFF797
:102180004FFA002810D0606B416BBDE870400847E3
:10219000830610D58B060ED52046BDE8704000F0B2
:1021A0002BBA2046FFF798FF70BD2046FFF794FF3B
:1021B0000020E06370BD030606D50B0604D520465B
:1021C000BDE8704000F0C0BA4006F3D54806F1D52E
:1021D000D168204621F04001D160202184F83910D7
:1021E00000F02AF970BD0000CD25000870B504008C
:1021F00004D094F83900002510B106E0012070BD2C
:1022000084F83850204600F023F8242084F8390060
:102210002068C16821F40051C160204600F038FAFE
:102220002068016921F4904101612068416921F031
:102230002A0141612068C16841F40051C160E56331
:10224000202084F8390084F83A00002070BD000096
:1022500070B586B0002400940194029403942E4E2D
:1022600003682E49022003222D4DB34226D18B69EB
:1022700043F480438B618B6903F4804304938B693F
:1022800043F004038B618969039201F00401049116
:102290000102CDE9001069462846FFF70DFA28151E
:1022A000CDE90004694628460294FFF705FA0022AA
:1022B00011462520FFF74EFC252028E0194EB34299
:1022C00027D1CB6943F40033CB61CB6903F40033EE
:1022D00004938B6943F004038B618969039201F0D5
:1022E000040104910421CDE9001069462846FFF756
:1022F000E3F90820CDE90004694628460294FFF777
:10230000DBF9002211462620FFF724FC2620FFF7E8
:1023100013FC06B070BD0000003801400010024000
:10232000000801400044004090F83A30202B22D1B0
:10233000F9B1F2B190F83830012B1CD0816282855E
:10234000C2850021C163222280F83A2080F838102B
:102350000168CA6842F48072CA6001684A6942F042
:1023600001024A610068C16841F02001C16000209B
:1023700070470120704702207047FFF729B82DE908
:10238000F843044690F839001F4616460D462028AB
:1023900050D1A5B19EB194F8380001284AD001204F
:1023A00084F838004FF00008C4F83C80212084F8FD
:1023B0003900FFF771FAA6848146E68426E0012001
:1023C000BDE8F883E08C401EE084A0684B46B0F581
:1023D000805F4FF000024FF080012046009703D04D
:1023E00000F0E3F9E8B90DE000F0DFF9C8B928889A
:1023F0002168C0F308004860206908B16D1C05E041
:10240000AD1C03E0216815F8010B4860E08C002842
:10241000D8D14B46002240212046009700F0C5F954
:1024200008B10320CCE7202084F8390084F83880F4
:102430000020C5E70220C3E77047FEE70D4808B556
:10244000816941F020018161816901F020010091E1
:10245000816941F004018161816901F00401009109
:10246000816941F008018161806900F008000090F5
:1024700008BD0000001002400D4810B50B49016076
:102480000C49416000214FF480428160C0E9031291
:1024900041618161C1610162FFF704FA002803D044
:1024A000BDE81040FEF792BF10BD00000054004090
:1024B00068020020A08601000C4810B50A4901609E
:1024C0004FF416514160002181600C22C160C0E9C7
:1024D00004128161C161FFF789FE002803D0BDE8C5
:1024E0001040FEF773BF10BD00380140BC02002051
:1024F0000C4810B50A4901604FF4165141600021A3
:1025000081600C22C160C0E904128161C161FFF7E2
:102510006DFE002803D0BDE81040FEF757BF10BD88
:1025200000440040FC020020FEE7704770477047FF
:10253000FFF7AABA30B58FB028216846FDF709FE2B
:1025400014210AA8FDF705FE01210804CDE90010B9
:102550000024029402250491CDE907504FF4E010C5
:1025600009906846FFF714FC0F20CDE90A056802C0
:10257000CDE90C4002210AA80E94FFF71DFB0FB015
:1025800030BD00000D48016841F001010160416863
:102590000B4A1140416001680A4A1140016001681C
:1025A00021F480210160416821F4FE0141604FF473
:1025B0001F0181600449C003086070470010024099
:1025C0000000FFF8FFFFF6FE08ED00E010B5406ADE
:1025D0000021C185C184FFF77FFD10BD0168CA6875
:1025E00022F49072CA6001684A6922F001024A61CD
:1025F000202180F83A10704710B590F83A1022293F
:1026000001D0022010BD8168B1F5805F11D0016951
:10261000002901681FD0496801F07F03816A4A1CC4
:1026200082620B70C18D491E0904090CC18518D046
:102630002BE00269816A002A0268526805D0D2B292
:102640000A80816A491C8162ECE7C2F308020A80B1
:10265000816A891CF7E74A68816A4B1C83620A70A9
:10266000E0E70168CA6822F02002CA600168CA680F
:1026700022F48072CA6001684A6922F001024A614C
:10268000202180F83A10FFF778FE002010BD0000EE
:102690002DE9F041044600680169E26821F44051E7
:1026A000114301612169A0680843616908432168F9
:1026B000CA6841F20C639A430243CA6020684169C8
:1026C000A26921F44071114341611E4920686425CB
:1026D0003226884202D1FFF715FB01E0FFF702FB2B
:1026E00000EBC00101EB001160686FF0180780007B
:1026F000B1FBF0F2B2FBF5F2B1FBF0F37A4303EB7E
:102700008202B1FBF0F306EB0212B2FBF5F2B3FB6F
:10271000F5F302F0F00202EB0312B1FBF0F3B1FBB0
:10272000F0F0B0FBF5F0784303EB800006EB00100F
:10273000B0FBF5F0216800F00F0010448860BDE8A0
:10274000F08100000038014090F83910212901D0B3
:10275000022070478168B1F5805F016A0BD04A1C86
:102760000262026809785160C18C491E0904090C93
:10277000C1840ED017E009880268C1F308015160D6
:1027800001690029016A02D0491C0162ECE7891C39
:10279000FBE70168CA6822F08002CA600068C1686D
:1027A00041F04001C160002070472DE9F04198469A
:1027B00017460E460446069D1DE0681C1BD02DB131
:1027C000FFF76AF8A0EB0800A84214D92068C16896
:1027D00021F4D071C1602068416921F0010141619B
:1027E000202084F8390084F83A00002084F838006A
:1027F0000320BDE8F0812068006836EA000004D0BC
:102800000020B842D9D00020F3E70120F9E700000A
:102810000148FFF763BC0000BC0200200148FFF73D
:102820005DBC0000FC020020FEE700000FB4054B79
:1028300010B503A9044A029800F02EFC10BC5DF804
:1028400014FB0000ED3C000810000020490050EA95
:10285000C12018BF04204A0D18BF40F0010040F20B
:10286000FF72B2EB515F08BF40F00200012808BFC1
:10287000052070470907090E002804DB00F1E0205D
:1028800080F80014704700F00F0000F1E02080F89D
:10289000141D70472DE9F74F144694B00021C4E988
:1028A00002111599079121F00045C9498D4206DCB6
:1028B0001599C4E9000117B00020BDE8F08FC549A3
:1028C000DFF814A3A9423CDD0799C44E0029C44F88
:1028D000C44A1599534619DDFEF719F8554506D037
:1028E000C14AC24BFEF713F8C4E900010AE04FF0F9
:1028F000D352BE4BFEF70BF832463B46FEF707F8C5
:10290000C4E9000117B00120BDE8F08FFDF75EFFBC
:10291000554506D0B44AB54BFDF758FFC4E9000150
:102920000AE04FF0D352B14BFDF750FF32463B4621
:10293000FDF74CFFC4E9000117B04FF0FF30BDE8D0
:10294000F08FAB49A942159978DB21F0004183460D
:102950008846A84AA84BFDF7E0FF0022A74BFDF7E9
:1029600035FFFEF705F90990FEF7D8F806460F4641
:102970009C4A5346FDF7D1FF43465A46FDF7CAFF2E
:1029800080468A46984A994B30463946FDF7C5FF3E
:102990002A0D01250B9242465346FDF7BBFF032D3E
:1029A000C4E9000139D00B98C1F30A51401A05EB74
:1029B00045111139814230DA9148C346784400EB21
:1029C0000510CDF80CA00C90D0E900233046394614
:1029D000FDF7A3FF02460B46049106905846039963
:1029E000FDF795FF80468A4602460B4658460399F6
:1029F000FDF78DFF049B069AFDF789FF83460C982F
:102A000003913946D0E902233046FDF786FF5A4646
:102A1000039BFDF77CFF6D1CBDE707980028A2BF54
:102A2000099817B0BDE8F08F616881F000416160DE
:102A3000099817B04042BDE8F08FFFE7844615982B
:102A4000C1F31301C0F30A50A0F2F5304FEA601849
:102A500000F01F06C6F1200013900020069007909A
:102A600041F4801E05206D4676B1664A08EB0001F0
:102A70007A4452F8213002EB8101B3404A6813993D
:102A800022FA01F1194305E05F4908EB000279449D
:102A900051F82210A1FB0E27A1FB0C131A449A42F5
:102AA00034BF0123002303EB070A05EB8003D3E9BE
:102AB00001B70F448F4234BF0121002193448B445E
:102AC00011B1934502D903E0934501D2012100E001
:102AD0000021C3E901B7514445F82010011EA0F1BF
:102AE0000100C1DC0298059F00F10050800F129098
:102AF0000298DDE903568000FEF710F88346284669
:102B00000D91FEF73FFC6FF01D02FDF7E7FFCDE9E9
:102B10000E013046FEF736FC6FF03D02FDF7DEFF9A
:102B200080468A463846FEF72DFC6FF05D02FDF7C1
:102B3000D5FF0746424653461191FDF747FEDDE9B2
:102B40000E23FDF743FE5A460D9BFDF73FFE002581
:102B50000E465A4628460D9BFDF7D9FEDDE90E23A9
:102B6000FDF7D5FE42465346FDF7D1FE3A46119B8E
:102B7000FDF7D0FEDFF898A0244A5346FDF7CDFEBE
:102B800007468846234A244B31462846FDF7C5FEB2
:102B90003A464346FDF71AFE074688464FF0A842DC
:102BA000534631462846FDF7B8FE3A464346FDF700
:102BB0000DFE159A12F0004F04D0129A81F00041D8
:102BC00052421292C4E90001129817B0BDE8F08F8A
:102BD000FB21E93F7CD90240FB21F93F7370032EB2
:102BE0008A19A33B000040543163621A61B4D03D9E
:102BF000FB21394183C8C96D305FE43F0000E03FED
:102C0000A81B0000241B0000061B0000182D4454C4
:102C1000FB21F93D3326A611460B113C2DE9FF4D52
:102C200021F0004807460C46B8F1795F08DAFDF755
:102C30009FFF002801BF0020324904B0BDE8F08D9D
:102C40003A46234610461946FDF767FE05460246FA
:102C50002D480E460B460621784400F05DF82A46C2
:102C60003346FDF75AFEDDE9022382468B4638469D
:102C70002146FDF752FE04460F4652465B46284663
:102C80003146FDF74AFE22463B46FDF740FE074629
:102C90008A464FF0FF3228463146FDF71FFF1B4A98
:102CA00090450ADA3A465346FDF731FE04B0002259
:102CB000BDE8F04D134BFDF72DBE154A4245A8BFA8
:102CC000A8F500154FF00004B8BF124D22462B4660
:102CD000FDF71DFE0646884622462B460020094980
:102CE000FDF715FE04460D463A465346304641462A
:102CF000FDF70DFE04B022462B46BDE8F04DFDF772
:102D000009BE00000000F03FD41800003333D33F69
:102D10000000E93F0000D23F2DE9F0414F1E00EBDB
:102D2000C7010446D1E9000115461E4637F00602E8
:102D30000DD02A463346FDF7F0FD7F1E04EBC70396
:102D4000D3E90023FDF742FD37F00602F1D1022F4F
:102D500025D0042F13D0062F18BFBDE8F0812A46D6
:102D60003346FDF7DAFDD4E90A23FDF72FFD2A46A5
:102D70003346FDF7D2FDD4E90823FDF727FD2A46A7
:102D80003346FDF7CAFDD4E90623FDF71FFD2A46A9
:102D90003346FDF7C2FDD4E90423FDF717FD2A46AB
:102DA0003346FDF7BAFDD4E90223FDF70FFD2A46AD
:102DB0003346FDF7B2FDD4E90023BDE8F041FDF74D
:102DC00005BD00002DE9FF4D054621F0004084B00F
:102DD0000C46B0F1795F0BDA2846FFF737FD04287F
:102DE00008BF00F071F8284608B02146BDE8F08D14
:102DF0002A460B461046FDF790FD06460F462A462A
:102E00002346FDF78AFD804626488A4632463B46E1
:102E100005217844FFF780FF83461098029160B344
:102E2000214A224B40465146FDF777FDCDE900018E
:102E30005A4640465146029BFDF76FFD8246884642
:102E4000DDE906014FF0FF32FDF748FE52464346EA
:102E5000FDF75DFD32463B46FDF75FFDDDE90623EC
:102E6000FDF755FDDDE90023FDF751FD08B02A46C9
:102E70002346BDE8F04DFDF74DBD0B465A463046A2
:102E80003946FDF74AFD084A084BFDF79FFC4246CC
:102E90005346FDF742FD08B02A462346BDE8F04DF3
:102EA000FDF794BC1A180000495555555555C5BF36
:102EB0000122FDF713BEFDF789BC00221346104620
:102EC0001146FDF79CBD0000024A00201107FDF7E6
:102ED00005BE000001FDFFFF02E008C8121F08C187
:102EE000002AFAD170477047002001E001C1121F8B
:102EF000002AFBD1704700000149086070470000BC
:102F0000140000202DE9FF5F82B00021DDE90430CC
:102F1000020DDDF840B0034318D044F61050A2F281
:102F2000FF3242431514119801281FD0A5EB0B0066
:102F3000401C5FEA000A4FF000064E4FDFF8389160
:102F4000B046504615D5CAF1000413E0119801248B
:102F50004AA3012801D16FEA0B010298119AC0E936
:102F60000031C0E9024206B0BDE8F09FCBF100009D
:102F7000DFE704460021404A491842EB0450CDE9FE
:102F8000001012E0E00707D032463B464046494673
:102F9000FDF7C3FC8046894632463B46104619463B
:102FA000FDF7BBFC06460F466410002CEAD1DDE9B4
:102FB0000401DDE90023BAF1000F06DAFDF7ADFCEC
:102FC00042464B46FDF7A9FC05E0FDF718FD4246D9
:102FD0004B46FDF714FD04460E460022284BFDF734
:102FE000EFFF03D84FF0FF30014607E00022254BEA
:102FF00020463146FDF7EAFBFDF7CAFF102409E041
:10300000002C0ADB0A220023FDF7FAFD039B303275
:103010001A55641E50EA0102F2D1641C039AC4F1ED
:1030200011031444119A012A03D0012208430DD13F
:103030000AE0084304D000204FF0110B119072E712
:10304000A3EB0B056D1E0DE05B4504DD4FF00002A8
:1030500005F1010504E003DA4FF00002A5F10105D6
:10306000002AECD002981199C0E90231C0E900456C
:1030700079E70000000014400000F03F300000003D
:103080000000F0430000E03F30380A2801D2012060
:1030900070470020704700002DE9FF4F95B09B4618
:1030A0008946064600250FE2252877D100242746C9
:1030B000F84A0121059400E0044316F8013F203B43
:1030C00001FA03F01042F7D130782A2811D06FF0BE
:1030D0002F033078A0F13002092A16D8059A44F05F
:1030E000020402EB820203EB42021044761C0590BC
:1030F000EFE759F8042B0592002A03DA504244F412
:103100000054059044F00204761C30782E2816D125
:1031100016F8010F44F004042A280DD06FF02F0296
:103120003078A0F13003092B09D807EB870302EBB5
:103130004303C718761CF3E759F8047B761C3078F4
:103140006C280FD006DC4C2817D068280DD06A28D0
:1031500014D104E0742810D07A280FD10DE044F483
:1031600000140AE044F4801401E044F4401472783E
:10317000824202D104F58014761C761C30786628D1
:103180000BD013DC582877D009DC002875D04528EF
:10319000F6D04628F4D047281AD19DE118E06328DC
:1031A00035D0642879D0652812D195E1702873D084
:1031B00008DC6728F1D069286FD06E280DD06F2801
:1031C00006D1B5E073282CD0752875D0782874D036
:1031D0005A46179990476D1C75E1C4F302500228B6
:1031E00009D003280DD0D9F8001004280DD00D60A7
:1031F00009F1040967E1D9F80010EA17C1E90052A2
:10320000F6E7D9F800100D80F2E70D70F0E719F835
:10321000041B8DF8001000208DF80100EA46012003
:1032200003E059F804AB4FF0FF3061074FF00001A5
:1032300002D40DE008F101018846B9420FDA804559
:10324000F8DB1AF808100029F4D108E008F10101B0
:1032500088468142FADB1AF808100029F6D1059851
:103260005B46A0EB080721463846179A00F094FA0F
:10327000284400EB080507E04DE029E10DE01AF8CD
:10328000010B5A4617999047B8F10108F7D25B46EF
:1032900021463846179A13E142E00A220092C4F30D
:1032A00002524FF0000A022A08D059F804CB032A30
:1032B0004FEAEC710AD00DE029E02AE009F107019C
:1032C00021F00702F2E802C1914609E00FFA8CFCF6
:1032D0004FEAEC71042A03D14FFA8CFC4FEAEC71EF
:1032E000002907DA0A460021DCF1000C61EB02013B
:1032F0002D2202E0220504D52B228DF80420012284
:1033000003E0E20701D02022F7E7904659E00A21C6
:1033100002E010220DE010214FF0000A00910BE0B6
:1033200010224FF0000A44F004040827009203E042
:1033300008224FF0000A0092C4F30252022A05D07C
:1033400059F804CB0021032A08D009E009F107014C
:1033500021F00702F2E802C1914605E01FFA8CFC59
:10336000042A01D10CF0FF0C4FF00008220728D5E9
:10337000702806D0009B83F0100353EA0A0305D09F
:103380000EE040228DF80420012208E05CEA0102F0
:1033900006D030228DF804208DF8050002229046D8
:1033A000009B83F0080353EA0A030AD15CEA010296
:1033B00001D1620705D530228DF804204FF00108B5
:1033C0007F1E582804D034A003900EA802900DE070
:1033D00036A0F9E753466046009AFDF711FC844693
:1033E0000398825C0298401E029002705CEA010021
:1033F000F0D1029806A9081A00F1200A600702D548
:1034000024F4803400E00127574502DDA7EB0A00D1
:1034100000E0002000EB0A01009005984144401AAA
:103420000590E00306D45B462146179A059800F004
:10343000B3F90544002706E001A85A46C05D179974
:1034400090476D1C7F1C4745F6DBE0030CD55B46BF
:103450002146179A059800F09FF9054404E03020B2
:103460005A46179990476D1C0099481E00900029F4
:10347000F5DC08E0029802995A460078491C02914E
:10348000179990476D1CBAF10001AAF1010AF1DC0D
:1034900065E1000009280100303132333435363718
:1034A0003839616263646566000000003031323390
:1034B0003435363738394142434445460000000030
:1034C00000F058F90544761C307800287FF4ECAD04
:1034D00019B02846BDE8F08F620700D4062709F12D
:1034E000070222F0070CFCE80223E14603F0004843
:1034F0005FEA080C02D00FF2702C0DE05FEA045C6A
:1035000002D50FF2682C07E05FEAC47C02D00FF20C
:10351000602C01E0AFF2700C4FF0FF3823F0004355
:10352000CDF850C065280CD006DC452809D04628C7
:103530001DD047283DD13DE0662818D067287ED1B0
:1035400038E00021112F01DB112000E0781CCDE9CB
:10355000000106A90EA8FFF7D5FCDDE90F010E9AC0
:1035600003910021009207F1010A04914DE04FF010
:1035700000400097CDE9011006A90EA8FFF7C2FC94
:10358000DDE90F0203920E9B11990022DDF80CA0D9
:103590000093049211B9791C00EB010AB7EB0A0001
:1035A00004D4C0F1FF3007F1010A0490AAEB070030
:1035B000019044E0012F00DA01270021112F01DDE5
:1035C000112000E03846CDE9000106A90EA8FFF75A
:1035D00099FCDDE90F010E9A0391002104910092FC
:1035E000BA4621070CD40399514500DA8A46BAF14C
:1035F000010F05DD009AAAF10101515C302908D0C4
:10360000B84202DA10F1040F06DA0121CDE9011007
:1036100015E0AAF10101E9E7002805DC049901445D
:103620000491AAEB000102E0411C514500DD8A46ED
:103630000499401A401C01904FF00040029020076E
:1036400004D40198504501DBCDF8048000208DF8AA
:103650004F0002980DF14F07B0F1004F25D02B20FD
:103660000E9002984FF0020800280CDA40420290B7
:103670002D200E9007E00A210298FDF7ABFA3031B9
:10368000029007F8011DB8F10001A8F10108F2DC71
:1036900002980028EFD1791E0E980870307800F05B
:1036A000200040F0450007F8020D12A8C01B00F1F1
:1036B00007081498007800B1012000EB0A01019876
:1036C00001EBE07105984144401A401E0590E0036B
:1036D00006D45B462146179A059800F05DF805442C
:1036E0001498007818B15A46179990476D1CE0035A
:1036F00024D55B462146179A059800F04DF80544FD
:103700001CE00498002807DBDDE90301884203DDA3
:103710000098405C179901E0179930205A4690476D
:10372000049805F10105401C04900198401E019089
:1037300004D12E205A46179990476D1CBAF100010A
:10374000AAF1010ADDDC05E017F8010B5A461799CA
:1037500090476D1CB8F10001A8F10108F4DC5B464C
:103760002146179A0598ABE62D0000002B000000BB
:10377000200000002DE9F041044600251E461746B2
:10378000880404D405E039462020B0476D1C641E2F
:10379000F9D52846BDE8F0812DE9F0410446002521
:1037A0001E469046C80301D5302700E02027880434
:1037B00004D505E041463846B0476D1C641EF9D576
:1037C0002846BDE8F08100002DE9F84F04460D467B
:1037D00021F0004000917349814211DC7249884216
:1037E00001DC06D12CB120462946BDE8F84FFFF791
:1037F0005FBB6E48002DCCBF6D496E49BDE8F88FA8
:103800006D49814211DD6D498142D8BF4FF0FF36CD
:103810006DDD20462946FFF719F8042808BFFFF799
:1038200053FB20462946BDE8F88F6549654F25F0D2
:103830000045814233DD6449814219DD002632466C
:103840004FF0804320462946FCF7C0FF80468A4659
:10385000012220462946FDF741F900223B46FDF7AB
:1038600056F842465346FDF7CAF804460D463EE078
:1038700001260022BA463B4620462946FCF7A6FF11
:1038800080460F460022534620462946FDF73FF862
:1038900042463B46FDF7B3F804460D4627E04B4948
:1038A00081421BDDDFF828A1022600225346204674
:1038B0002946FDF732F800223B46FCF787FF804699
:1038C0000F460022534620462946FDF720F842467F
:1038D0003B46FDF794F804460D4608E003262246D1
:1038E0002B4600203B49FDF78AF804460D46224648
:1038F0002B4610461946FDF710F88B4682460246C5
:103900000B46FDF70AF807460246334888460B4641
:1039100006217844FFF700FA52465B46FCF7FDFFAC
:1039200082462E488B463A46434605217844FFF7A7
:10393000F3F93A464346FCF7F0FF02460B46002EE9
:10394000504659460CDAFCF741FF22462B46FCF75D
:10395000E4FF01B022462B46BDE8F04FFCF7DABF8A
:10396000FCF734FF22462B46FCF7D7FF1C4A7A446B
:1039700002EBC603D3E90023FCF7C9FF22462B461E
:10398000FCF7C5FF174A7A4402EBC603D3E90023CC
:10399000FCF7C0FF009A002AB8BF81F00041BDE8E3
:1039A000F88F0000000010440000F07F182D4454F0
:1039B000FB21F93FFB21F9BF0000DC3F0000203E66
:1039C0000000F33F0000F03F0000E63F00800340AE
:1039D0000000F83F0000F0BFEA0B0000A80B000059
:1039E000460B00000E0B00002DE9F04D9446CCF183
:1039F000000423F000464CEA0404524F46EAD47413
:103A00009A46884621F00042BC4206D8454240EA28
:103A1000050442EAD474BC4204D9BDE8F04D6246C4
:103A2000FFF749BAAAF14055A5F17F6555EA0C04A4
:103A30000BD0022404EAAA74434DDFF810E144EAF3
:103A4000D87452EA000B04D00CE0BDE8F04DFFF74B
:103A5000BBBE002C14BF012CBDE8F08D022C30D071
:103A6000032C32D056EA0C0B0AD0BE4220D1BA4207
:103A700009D126F0804622F080423346114617E0F5
:103A800000291ADB25E0DFF8C8B0FB44002C04BF96
:103A9000DBE90001BDE8F08D012C02BFDBE900018C
:103AA00081F00041BDE8F08D022C0AD0032C0CD02F
:103AB000BA4212D1B8F1000F0BDA23482549BDE80C
:103AC000F08D28462449BDE8F08D28467146BDE8B2
:103AD000F08D1D482149BDE8F08D921B12153C2A3E
:103AE000C4BF19481D490EDCBAF1000FBEBF12F168
:103AF0003C0F0020014606DB6246FCF780FF21F008
:103B00000041FFF761FE002C08BFBDE8F08D012CDD
:103B100004BF81F00041BDE8F08D114A114B022C29
:103B200007D0FCF7F4FE2A46BDE8F04D0A4BFCF73F
:103B3000EEBEFCF7ECFE2A46BDE8F04D064BFCF766
:103B4000E9BE00000000F07F182D4454FB2109C09D
:103B5000D20A0000FB21F9BFFB210940FB21F93FFC
:103B6000075C143326A6A13C70B50546FDF71FF887
:103B700000220F4B00F070F804460E460D4928460F
:103B8000FCF7E6FDFCF7DBFFFCF7BFFF0546002274
:103B9000094B20463146FCF732FF06460C462846C4
:103BA000FDF705F832462346BDE87040FCF70EBE2F
:103BB000000059400000C84200004E4000B5244BB0
:103BC00021F0004287B09A42DCBF0022134629DD73
:103BD000204B9A4208D140B94FF00100FFF78CF911
:103BE000FFF76BF907B000BD03DBFFF761F907B022
:103BF00000BD02AAFEF74EFE10F0030104BF0DF156
:103C0000080C9CE80F000DD0012001290ED00229DC
:103C100014D00DF1080C00909CE80F00FFF7D2F8CB
:103C200007B000BDFEF7FAFF07B000BD0DF1080CAC
:103C300000909CE80F00FFF7C5F805E00DF1080CB7
:103C40009CE80F00FEF7EAFF07B081F0004100BDDD
:103C5000FB21E93F0000F07F70B514461D460E467B
:103C6000002814BF01210021314321F00041C1F19E
:103C70007F6101F1E041C90F16D1002C14BF012171
:103C80000021294321F00041C1F17F6101F1E041B0
:103C9000C90F09D11449B1EB460F08BF00281CD049
:103CA000690008BF002C18D03146FDF722F9024602
:103CB00040F2FF7030EA11500DD0F017B0EBE17F09
:103CC00009D0084665F31E0084460B46204661462F
:103CD000FCF720FE0246104670BD0120FFF70CF9EC
:103CE000BDE87040FFF7E9B80000E0FF13B54FF6FC
:103CF000FF73012269460248FEF741FB00981CBD94
:103D0000FC0200200FB42DE9F05F1646DDE90E41FC
:103D10001F460D46314A324B2046FCF7FEFD00F0AF
:103D200083F8304A304BFCF7F8FD81468A4622463C
:103D30002B4620462946FCF7F0FD8346884632464E
:103D40003B4630463946FCF7E8FD5A464346FCF709
:103D50003DFD00F0B9F84A465346FCF737FD804672
:103D600089461E4A1E4B30463946FCF7D6FDFFF702
:103D700025FF1E4A1E4BFCF7D0FD82468B4632467D
:103D80003B4620462946FFF72FFE52465B46FCF78E
:103D90001DFD04460D46FFF711FF42464B46FCF75A
:103DA000BCFD144A144BFCF711FD06460F46204695
:103DB000294600F039F842464B46FCF7AEFD0F4A63
:103DC0000F4BFCF703FD02460A98C0E90221C0E947
:103DD0000067BDE8F01F5DF814FB00004E04C777D4
:103DE000102E4A40F168E388B5F8F43E54E41071AF
:103DF000732AC93E39B4C876BE9F7A3FFA7E6ABC40
:103E00007493783FFDF748FEFDF702FBFEF792FB47
:103E1000FEF714FBFEF730FBFEF74EFBFEF768FBE8
:103E2000FDF704FBFCE7000000B5254B21F0004244
:103E300087B09A4203DC0022134600922BE0214B0C
:103E40009A4208D140B94FF00100FFF755F8FFF74B
:103E500034F807B000BD03DBFFF72AF807B000BD58
:103E600002AAFEF717FD10F003014FF001000DD07C
:103E7000012914D002291AD00DF1080C9CE80F007A
:103E8000FEF7CCFE07B081F0004100BD0DF1080C3B
:103E900000909CE80F00FEF795FF07B000BD0DF104
:103EA000080C9CE80F00FEF7B9FE07B000BD0DF14D
:103EB000080C00909CE80F00FEF784FFE2E700008A
:103EC000FB21E93F0000F07F2DE9F04106460F4657
:103ED000FCF7BEFF041E0D4618BF0120284320F04A
:103EE0000040C0F17F6000F1E040C00F0ED0301CF8
:103EF00018BF0120384320F00040C0F17F6000F17E
:103F0000E040C00F04BF0120FEF7F6FF204629461F
:103F1000BDE8F0812DE9F04F8DB014461D460646F0
:103F20000F46FCF725FE002800DA4042FCF7F6FDBC
:103F3000FFF7CAFFDFF8A8816A4B4246FCF7EDFCA9
:103F400081468A464246684B30463946FCF7E5FCD6
:103F500022462B46FCF7E1FC8B4608904246614B1B
:103F600020462946FCF7D9FC22462B46FCF7D5FC17
:103F7000CDE9051000225D4B20462946FCF7CDFC1B
:103F800001910490012230463946FCF7A7FD804696
:103F90000022574B0391FCF719FC019B049AFCF794
:103FA00015FCDDE90532FCF711FC5B46089AFCF7CD
:103FB0000DFC4A465346FCF709FC82468B464046B8
:103FC0004C4A4D4B0399FCF7A8FCFFF72DFF00224C
:103FD0004A4BFCF7A2FC804689460022484B3046FB
:103FE0003946FCF79AFC434A434BFCF796FCFFF733
:103FF0001BFF0022414BFCF790FC42464B46FCF76E
:10400000E5FB0122FCF76AFD0022384BFCF7F7FCC8
:1040100052465B46FCF7DAFB81468A460022334B68
:1040200020462946FCF7EBFC324A334BFCF775FC83
:10403000FFF7FAFE0022334BFCF76FFC0746884679
:104040002C4A2D4B20462946FCF767FC8B4606463A
:10405000FFF7EAFE0022294BFCF75FFC43463A4695
:10406000FCF7B4FB0122FCF739FD00221F4BFCF7E3
:10407000C6FC4A465346FCF7A9FB804689463046B3
:1040800059460022204BFCF7BAFCFFF7CDFE002278
:104090001E4BFCF742FC07460E4600221C4B2046F6
:1040A0002946FCF7ACFC134A134BFCF736FCFFF730
:1040B000BBFE0022174BFCF730FC3A463346FCF7B8
:1040C00085FB0122FCF70AFD0022084BFCF797FC58
:1040D0000DB042464B46BDE8F04FFCF777BB000001
:1040E0009A9999999999C93F9999B93F00000840BF
:1040F000000059C0182D4454FB21094000003440F1
:10410000000018400000444000003E4000007440A1
:1041100000002840000064402DE9FF5F82B0934614
:1041200004460D46FCF724FD002800DA4042FCF767
:10413000F5FCFFF7C9FE6B4EDFF8AC9132464B46FB
:10414000FCF7EBFB0746884632464B46204629469D
:10415000FCF7E3FB009106465A46059BFCF7DDFBA6
:1041600081468A46304622462B460099FCF7D5FB0D
:10417000CDE90001012258460599FCF7AFFC06463F
:104180008B460022594B20462946FCF71FFB32463E
:104190005B46FCF71BFBDDE90023FCF717FB4A46F7
:1041A0005346FCF713FB3A464346FCF70FFB074622
:1041B0008946012220462946FCF790FC4C4A4D4B8B
:1041C000FCF7ABFBFFF730FEDFF82CA100225346D3
:1041D000FCF7A3FB064688460022484B20462946AA
:1041E000FCF79BFB424A434BFCF797FBFFF71CFE97
:1041F00000225346FCF791FB32464346FCF7E6FAB1
:104200000122FCF76BFCDFF8F8B000225B46FCF7FC
:10421000F6FB3A464B46FCF7D9FA8046894600221F
:104220005B4620462946FCF7EAFB314A314BFCF756
:1042300074FBFFF7F9FD0022324BFCF76EFB0746DB
:104240000E462B4A2B4B20462946FCF766FBFFF710
:10425000EBFD00225346FCF760FB3A463346FCF781
:10426000B5FA0122FCF73AFC00225B46FCF7C7FBDB
:1042700042464B46FCF7AAFA804689460022224B6A
:1042800020462946FCF7BBFB194A1A4BFCF745FBB5
:10429000FFF7CAFD0022154BFCF73FFB07460E4611
:1042A00000221A4B20462946FCF7A9FB104A114B65
:1042B000FCF733FBFFF7B8FD0022154BFCF72DFB95
:1042C0003A463346FCF782FA0122FCF707FC00224B
:1042D0005B46FCF794FB06B042464B46BDE8F05FF8
:1042E000FCF774BA9A9999999999B93F00C07240AC
:1042F000182D4454FB2109400000344000001840B0
:10430000000008400000444000003E4000002840FB
:1043100000C062400FB42DE9F04F8FB01646DDE9C2
:104320001C411F460D460022494B2046FCF7EFFA80
:10433000804689460022474B30463946FCF7E7FA6B
:104340008B46824642464B46FFF7E4FDCDE9060127
:1043500042464B4650465946FFF7DEFECDE9011076
:1043600000223D4B29462046FCF749FB3B4A3C4B8B
:10437000FCF7D3FACDE90A01FFF756FD80468946DE
:10438000384A394BFCF7C9FA42464B46FCF7C5FAA6
:104390000022364BFCF7BEFA80468946FFF794FDB3
:1043A00082468B4642464B46FCF7B7FA02460B461E
:1043B0002F483049FCF723FB284A294BFCF7ADFA7C
:1043C00080468946DDE906010022234BFCF7A5FA69
:1043D00042464B46FCF713FBCDE90601DDE90A0135
:1043E000FFF7ECFB8146884652465B464FF0804023
:1043F0002149FCF704FB4A464346FCF78EFA174A6C
:10440000174BFCF78AFA80468946DDE90110002245
:10441000114BFCF782FA42464B46FCF7F0FADDE915
:1044200006238046894629462046FCF7CFF90446F4
:104430000D4642464B4630463946FCF7C7F90A4618
:10444000189981E835000FB0BDE8F00F5DF814FB56
:104450000080414000405A4000806640182D44547E
:10446000FB2109400BEF80AF8F6A7B3F0000F03FDC
:10447000C155E32D102B5841C15458410000000094
:104480000000000001020304060708090000000004
:1044900001020304000000004FBB610567ACDD3F73
:1044A000182D4454FB21E93F9BF681D20B73EF3F5B
:1044B000182D4454FB21F93FE2652F227F2B7A3CD3
:1044C000075C143326A6813CBDCBF07A8807703C8C
:1044D000075C143326A6913CC4EB98999999C9BFFF
:1044E000711623FEC671BCBF6D9A74AFF2B0B3BF34
:1044F0009AFDDE522DDEADBF2F6C6A2C44B4A2BFF4
:104500000D5555555555D53FFF8300922449C23F5F
:104510006E204CC5CD45B73F513DD0A0660DB13F93
:10452000EB0D76244B7BA93F11DA22E33AAD903FA5
:104530004C5555555555A53F7751C1166CC156BFC1
:104540009015CB19A001FA3EAD529C804F7E92BED1
:10455000C4B1B4BD9EEE213ED43888BEE9FAA8BDF0
:10456000000000000000000000004054FB21F93F63
:104570003163621A61B4D03D0000601A61B4D03D6D
:104580007370032E8A19A33B0000002E8A19A33BE7
:10459000C14920259A837B390000000000000000FB
:1045A0006E83F9A22915444ED15727FCC0DD34F59E
:1045B000999562DB4190433CAB6351FE61C5BBDE24
:1045C0003A6E24B7E0D24D42EA2E49061C92D10938
:1045D0001CEB1DFE3EA729B1F53582E88444BB2EB5
:1045E00026709CE9417E5FB439D69139F439538302
:1045F0008B5F849C3B28F9BDFF97F81F0F9805DE61
:104600008B112FEF1F6D0A5ACF7E366DB709CB275E
:10461000663F464F2DEA5F9EC7BA27757BF1E5EBF3
:10462000F739073DEA92528AB15FFB6B085D8D1F37
:10463000A6F810111111813FD561C119A0012ABF3F
:104640007DFEB157E31DC73EEB9C2B8AE6E55ABEC3
:104650007CD5CF5A3AD9E53DDDDDDDDDDCBBBBDD08
:10466000DDDDDDDDDDDDDDDD988888888888888812
:104670007777777777888888855555566666666632
:104680006666666666688888833333322222222211
:10469000222222222228888D677073206465766921
:1046A0006365206D616B6520776773383420636FB5
:1046B0006F7264696E6174650D0A67636A303220D7
:1046C000636F6F7264696E61746520697320666FD1
:1046D0007220616D6170206F7220676F6F676C650B
:1046E000206D61700D0A6264303920636F6F7264EF
:1046F000696E61746520697320666F7220626169FA
:104700006475206D61700D0A000000002447504759
:1047100047412C2532686864253268686425326810
:1047200068642E253368642C25662C25632C256649
:104730002C25632C256868642C256868642C256604
:104740002C25662C25632C2568642C25732C2A25A2
:1047500032730D0A000000007847000800000020B6
:1047600018000000D82E000890470008180000200C
:1047700028070000E82E00080100000010000000DB
:10478000000000000024F400000000000000000011
:04000005080000ED02
:00000001FF
